S00D00006272617A6F2E73726563F9
S11300000C945A000C9464000C9464000C946400E6
S11300100C9464000C9464000C9464000C946400CC
S11300200C9464000C9464000C9464000C946400BC
S11300300C9464000C9464000C9464000C946400AC
S11300400C9464000C9464000C9464000C9464009C
S11300500C9464000C9464000C9464000C9464008C
S11300600C9464000C9464000C9464000C9464007C
S11300700C9464000C9464000C9464000C9464006C
S11300800C9464000C9464000C9464000C9464005C
S11300900C9464000C9464000C9464000C9464004C
S11300A00C9464000C9464000C9464000C9464003C
S11300B00C94640011241FBECFEFD8E0DEBFCDBF87
S11300C00E948B000C9438010C94000087E8809304
S11300D07A0080E480937C000895811102C080E45A
S11300E003C0813019F481E480937C0080917A000C
S11300F0806480937A0080917A0084FFFCCF8091A1
S11301007A00806180937A00809178002091790050
S113011090E0922B08950E949C000E94AD000E94E2
S1130120660088E40E94A60080E00E946D006AE5F3
S113013081E00E94E000F5CF88E98093C10086E069
S11301408093C20087E68093C40008959091C00014
S113015095FFFCCF8093C600089584B18E6084B966
S1130160559AE0E8F0E08081826A8083E1E8F0E07B
S113017080818A61808380E29EE4909387008093EB
S113018086008CED95E0909389008093880090938D
S11301908B0080938A00E0EBF0E0808183688083A9
S11301A0E1EBF0E080818560808396E99093B30071
S11301B084B5836284BD85B5836085BD98BD08958B
S11301C0482F653B08F064EB28EE33E0629FC001E2
S11301D0639F900D112464EB70E00E9424019B0145
S11301E028513C4FC9016AE070E00E94100142307E
S11301F079F018F4413039F00895433071F0453006
S113020071F468BD0895309389002093880008959F
S113021030938B0020938A0008956093B30008956F
S1130220AA1BBB1B51E107C0AA1FBB1FA617B70718
S113023010F0A61BB70B881F991F5A95A9F7809534
S11302409095BC01CD01089597FB072E16F40094F8
S113025007D077FD09D00E94100107FC05D03EF4B9
S1130260909581959F4F0895709561957F4F08955E
S1070270F894FFCF2C
S9030000FC
