S00D00006272617A6F2E73726563F9
S11300000C945A000C946C000C946C000C946C00CE
S11300100C946C000C946C000C946C000C946C00AC
S11300200C946C000C946C000C946C000C946C009C
S11300300C946C000C946C000C946C000C946C008C
S11300400C946C000C946C000C946E000C946C007A
S11300500C946C000C946C000C946C000C946C006C
S11300600C946C000C946C000C946C000C946C005C
S11300700C946C000C946C000C946C000C946C004C
S11300800C946C000C946C000C946C000C946C003C
S11300900C946C000C946C000C946C000C946C002C
S11300A00C946C000C946C000C946C000C946C001C
S11300B00C946C0011241FBECFEFD8E0DEBFCDBF7F
S11300C021E0A0E0B1E001C01D92A130B207E1F748
S11300D00E947E000C94C0000C9400001F920F92AA
S11300E00FB60F9211248F938091C6008093000164
S11300F08F910F900FBE0F901F9018950E94830050
S11301000E948D00FFCF88E98093C10086E0809330
S1130110C20087E68093C400089584B18E6084B9D8
S1130120559AE0E8F0E08081826A8083E1E8F0E0BB
S113013080818A61808380E29EE49093870080932B
S113014086008CED95E090938900809388009093CD
S11301508B0080938A00E0EBF0E0808183688083E9
S1130160E1EBF0E080818560808396E99093B300B1
S113017084B5836284BD85B5836085BD98BD0895CB
S1070180F894FFCF1D
S9030000FC
